{
  "contractName": "PepechainAidropLock",
  "abi": [
    {
      "inputs": [
        {
          "internalType": "contract IERC20",
          "name": "_token",
          "type": "address"
        }
      ],
      "stateMutability": "nonpayable",
      "type": "constructor"
    },
    {
      "anonymous": false,
      "inputs": [
        {
          "indexed": true,
          "internalType": "address",
          "name": "previousOwner",
          "type": "address"
        },
        {
          "indexed": true,
          "internalType": "address",
          "name": "newOwner",
          "type": "address"
        }
      ],
      "name": "OwnershipTransferred",
      "type": "event"
    },
    {
      "inputs": [],
      "name": "owner",
      "outputs": [
        {
          "internalType": "address",
          "name": "",
          "type": "address"
        }
      ],
      "stateMutability": "view",
      "type": "function",
      "constant": true
    },
    {
      "inputs": [],
      "name": "releaseTime",
      "outputs": [
        {
          "internalType": "uint256",
          "name": "",
          "type": "uint256"
        }
      ],
      "stateMutability": "view",
      "type": "function",
      "constant": true
    },
    {
      "inputs": [],
      "name": "renounceOwnership",
      "outputs": [],
      "stateMutability": "nonpayable",
      "type": "function"
    },
    {
      "inputs": [],
      "name": "token",
      "outputs": [
        {
          "internalType": "contract IERC20",
          "name": "",
          "type": "address"
        }
      ],
      "stateMutability": "view",
      "type": "function",
      "constant": true
    },
    {
      "inputs": [
        {
          "internalType": "address",
          "name": "newOwner",
          "type": "address"
        }
      ],
      "name": "transferOwnership",
      "outputs": [],
      "stateMutability": "nonpayable",
      "type": "function"
    },
    {
      "inputs": [],
      "name": "release",
      "outputs": [],
      "stateMutability": "nonpayable",
      "type": "function"
    }
  ],
  "bytecode": "0x608060405234801561001057600080fd5b506040516105f53803806105f583398101604081905261002f916100d9565b61003833610074565b600180546001600160a01b0319166001600160a01b03831617905561006b42624f1a006100c4602090811b61033b17901c565b6002555061012a565b600080546001600160a01b038381166001600160a01b0319831681178455604051919092169283917f8be0079c531659141344cd1fd0a4f28419497f9722a3daafe3b4186f6b6457e09190a35050565b60006100d08284610109565b90505b92915050565b6000602082840312156100eb57600080fd5b81516001600160a01b038116811461010257600080fd5b9392505050565b808201808211156100d357634e487b7160e01b600052601160045260246000fd5b6104bc806101396000396000f3fe608060405234801561001057600080fd5b50600436106100625760003560e01c8063715018a61461006757806386d1a69f146100715780638da5cb5b14610079578063b91d4001146100a3578063f2fde38b146100ba578063fc0c546a146100cd575b600080fd5b61006f6100e0565b005b61006f6100f4565b6000546001600160a01b03165b6040516001600160a01b0390911681526020015b60405180910390f35b6100ac60025481565b60405190815260200161009a565b61006f6100c83660046103fa565b6102c2565b600154610086906001600160a01b031681565b6100e8610350565b6100f260006103aa565b565b6100fc610350565b60025442101561016b5760405162461bcd60e51b815260206004820152602f60248201527f416964726f704c6f636b3a2063757272656e742074696d65206973206265666f60448201526e72652072656c656173652074696d6560881b60648201526084015b60405180910390fd5b6001546040516370a0823160e01b81523060048201526000916001600160a01b0316906370a0823190602401602060405180830381865afa1580156101b4573d6000803e3d6000fd5b505050506040513d601f19601f820116820180604052508101906101d8919061042a565b90506000811161022a5760405162461bcd60e51b815260206004820181905260248201527f416964726f704c6f636b3a206e6f20746f6b656e7320746f2072656c656173656044820152606401610162565b6001546001600160a01b031663a9059cbb61024d6000546001600160a01b031690565b6040516001600160e01b031960e084901b1681526001600160a01b039091166004820152602481018490526044016020604051808303816000875af115801561029a573d6000803e3d6000fd5b505050506040513d601f19601f820116820180604052508101906102be9190610443565b5050565b6102ca610350565b6001600160a01b03811661032f5760405162461bcd60e51b815260206004820152602660248201527f4f776e61626c653a206e6577206f776e657220697320746865207a65726f206160448201526564647265737360d01b6064820152608401610162565b610338816103aa565b50565b60006103478284610465565b90505b92915050565b6000546001600160a01b031633146100f25760405162461bcd60e51b815260206004820181905260248201527f4f776e61626c653a2063616c6c6572206973206e6f7420746865206f776e65726044820152606401610162565b600080546001600160a01b038381166001600160a01b0319831681178455604051919092169283917f8be0079c531659141344cd1fd0a4f28419497f9722a3daafe3b4186f6b6457e09190a35050565b60006020828403121561040c57600080fd5b81356001600160a01b038116811461042357600080fd5b9392505050565b60006020828403121561043c57600080fd5b5051919050565b60006020828403121561045557600080fd5b8151801515811461042357600080fd5b8082018082111561034a57634e487b7160e01b600052601160045260246000fdfea2646970667358221220616c72426fb1d7da67244616f12b29808220fabc31b210ed6b436ee18808712d64736f6c63430008110033",
  "immutableReferences": {},
  "source": "// SPDX-License-Identifier: MIT\npragma solidity ^0.8.0;\n\nimport \"@openzeppelin/contracts/token/ERC20/IERC20.sol\";\nimport \"@openzeppelin/contracts/utils/math/SafeMath.sol\";\nimport \"@openzeppelin/contracts/access/Ownable.sol\";\n\ncontract PepechainAidropLock is Ownable {\n    using SafeMath for uint256;\n\n    IERC20 public token;\n    uint256 public releaseTime;\n\n    // 2 months duration in seconds (60 days * 24 hours * 60 minutes * 60 seconds)\n    uint256 private constant LOCK_DURATION = 60 * 24 * 60 * 60;\n\n    constructor(IERC20 _token) {\n        token = _token;\n        releaseTime = block.timestamp.add(LOCK_DURATION);\n    }\n\n    function release() public onlyOwner {\n        require(block.timestamp >= releaseTime, \"AidropLock: current time is before release time\");\n\n        uint256 amount = token.balanceOf(address(this));\n        require(amount > 0, \"AidropLock: no tokens to release\");\n\n        token.transfer(owner(), amount);\n    }\n}\n",
  "sourcePath": "/Applications/projects/pepechain-smart-contracts/contracts/PepechainAirdropLock.sol",
  "compiler": {
    "name": "solc",
    "version": "0.8.17+commit.8df45f5f.Emscripten.clang"
  },
  "schemaVersion": "3.4.13",
  "updatedAt": "2023-05-07T04:22:18.111Z",
  "networkType": "ethereum",
  "devdoc": {
    "kind": "dev",
    "methods": {
      "owner()": {
        "details": "Returns the address of the current owner."
      },
      "renounceOwnership()": {
        "details": "Leaves the contract without owner. It will not be possible to call `onlyOwner` functions anymore. Can only be called by the current owner. NOTE: Renouncing ownership will leave the contract without an owner, thereby removing any functionality that is only available to the owner."
      },
      "transferOwnership(address)": {
        "details": "Transfers ownership of the contract to a new account (`newOwner`). Can only be called by the current owner."
      }
    },
    "version": 1
  },
  "userdoc": {
    "kind": "user",
    "methods": {},
    "version": 1
  }
}