{
  "contractName": "PepechainTimelock",
  "abi": [
    {
      "inputs": [
        {
          "internalType": "uint256",
          "name": "minDelay",
          "type": "uint256"
        },
        {
          "internalType": "address[]",
          "name": "proposers",
          "type": "address[]"
        },
        {
          "internalType": "address[]",
          "name": "executors",
          "type": "address[]"
        },
        {
          "internalType": "address",
          "name": "admin",
          "type": "address"
        }
      ],
      "stateMutability": "nonpayable",
      "type": "constructor"
    },
    {
      "anonymous": false,
      "inputs": [
        {
          "indexed": true,
          "internalType": "bytes32",
          "name": "id",
          "type": "bytes32"
        },
        {
          "indexed": true,
          "internalType": "uint256",
          "name": "index",
          "type": "uint256"
        },
        {
          "indexed": false,
          "internalType": "address",
          "name": "target",
          "type": "address"
        },
        {
          "indexed": false,
          "internalType": "uint256",
          "name": "value",
          "type": "uint256"
        },
        {
          "indexed": false,
          "internalType": "bytes",
          "name": "data",
          "type": "bytes"
        }
      ],
      "name": "CallExecuted",
      "type": "event"
    },
    {
      "anonymous": false,
      "inputs": [
        {
          "indexed": true,
          "internalType": "bytes32",
          "name": "id",
          "type": "bytes32"
        },
        {
          "indexed": true,
          "internalType": "uint256",
          "name": "index",
          "type": "uint256"
        },
        {
          "indexed": false,
          "internalType": "address",
          "name": "target",
          "type": "address"
        },
        {
          "indexed": false,
          "internalType": "uint256",
          "name": "value",
          "type": "uint256"
        },
        {
          "indexed": false,
          "internalType": "bytes",
          "name": "data",
          "type": "bytes"
        },
        {
          "indexed": false,
          "internalType": "bytes32",
          "name": "predecessor",
          "type": "bytes32"
        },
        {
          "indexed": false,
          "internalType": "uint256",
          "name": "delay",
          "type": "uint256"
        }
      ],
      "name": "CallScheduled",
      "type": "event"
    },
    {
      "anonymous": false,
      "inputs": [
        {
          "indexed": true,
          "internalType": "bytes32",
          "name": "id",
          "type": "bytes32"
        }
      ],
      "name": "Cancelled",
      "type": "event"
    },
    {
      "anonymous": false,
      "inputs": [
        {
          "indexed": false,
          "internalType": "uint256",
          "name": "oldDuration",
          "type": "uint256"
        },
        {
          "indexed": false,
          "internalType": "uint256",
          "name": "newDuration",
          "type": "uint256"
        }
      ],
      "name": "MinDelayChange",
      "type": "event"
    },
    {
      "anonymous": false,
      "inputs": [
        {
          "indexed": true,
          "internalType": "bytes32",
          "name": "role",
          "type": "bytes32"
        },
        {
          "indexed": true,
          "internalType": "bytes32",
          "name": "previousAdminRole",
          "type": "bytes32"
        },
        {
          "indexed": true,
          "internalType": "bytes32",
          "name": "newAdminRole",
          "type": "bytes32"
        }
      ],
      "name": "RoleAdminChanged",
      "type": "event"
    },
    {
      "anonymous": false,
      "inputs": [
        {
          "indexed": true,
          "internalType": "bytes32",
          "name": "role",
          "type": "bytes32"
        },
        {
          "indexed": true,
          "internalType": "address",
          "name": "account",
          "type": "address"
        },
        {
          "indexed": true,
          "internalType": "address",
          "name": "sender",
          "type": "address"
        }
      ],
      "name": "RoleGranted",
      "type": "event"
    },
    {
      "anonymous": false,
      "inputs": [
        {
          "indexed": true,
          "internalType": "bytes32",
          "name": "role",
          "type": "bytes32"
        },
        {
          "indexed": true,
          "internalType": "address",
          "name": "account",
          "type": "address"
        },
        {
          "indexed": true,
          "internalType": "address",
          "name": "sender",
          "type": "address"
        }
      ],
      "name": "RoleRevoked",
      "type": "event"
    },
    {
      "inputs": [],
      "name": "CANCELLER_ROLE",
      "outputs": [
        {
          "internalType": "bytes32",
          "name": "",
          "type": "bytes32"
        }
      ],
      "stateMutability": "view",
      "type": "function",
      "constant": true
    },
    {
      "inputs": [],
      "name": "DEFAULT_ADMIN_ROLE",
      "outputs": [
        {
          "internalType": "bytes32",
          "name": "",
          "type": "bytes32"
        }
      ],
      "stateMutability": "view",
      "type": "function",
      "constant": true
    },
    {
      "inputs": [],
      "name": "EXECUTOR_ROLE",
      "outputs": [
        {
          "internalType": "bytes32",
          "name": "",
          "type": "bytes32"
        }
      ],
      "stateMutability": "view",
      "type": "function",
      "constant": true
    },
    {
      "inputs": [],
      "name": "PROPOSER_ROLE",
      "outputs": [
        {
          "internalType": "bytes32",
          "name": "",
          "type": "bytes32"
        }
      ],
      "stateMutability": "view",
      "type": "function",
      "constant": true
    },
    {
      "inputs": [],
      "name": "TIMELOCK_ADMIN_ROLE",
      "outputs": [
        {
          "internalType": "bytes32",
          "name": "",
          "type": "bytes32"
        }
      ],
      "stateMutability": "view",
      "type": "function",
      "constant": true
    },
    {
      "inputs": [
        {
          "internalType": "bytes32",
          "name": "id",
          "type": "bytes32"
        }
      ],
      "name": "cancel",
      "outputs": [],
      "stateMutability": "nonpayable",
      "type": "function"
    },
    {
      "inputs": [
        {
          "internalType": "address",
          "name": "target",
          "type": "address"
        },
        {
          "internalType": "uint256",
          "name": "value",
          "type": "uint256"
        },
        {
          "internalType": "bytes",
          "name": "payload",
          "type": "bytes"
        },
        {
          "internalType": "bytes32",
          "name": "predecessor",
          "type": "bytes32"
        },
        {
          "internalType": "bytes32",
          "name": "salt",
          "type": "bytes32"
        }
      ],
      "name": "execute",
      "outputs": [],
      "stateMutability": "payable",
      "type": "function",
      "payable": true
    },
    {
      "inputs": [
        {
          "internalType": "address[]",
          "name": "targets",
          "type": "address[]"
        },
        {
          "internalType": "uint256[]",
          "name": "values",
          "type": "uint256[]"
        },
        {
          "internalType": "bytes[]",
          "name": "payloads",
          "type": "bytes[]"
        },
        {
          "internalType": "bytes32",
          "name": "predecessor",
          "type": "bytes32"
        },
        {
          "internalType": "bytes32",
          "name": "salt",
          "type": "bytes32"
        }
      ],
      "name": "executeBatch",
      "outputs": [],
      "stateMutability": "payable",
      "type": "function",
      "payable": true
    },
    {
      "inputs": [],
      "name": "getMinDelay",
      "outputs": [
        {
          "internalType": "uint256",
          "name": "duration",
          "type": "uint256"
        }
      ],
      "stateMutability": "view",
      "type": "function",
      "constant": true
    },
    {
      "inputs": [
        {
          "internalType": "bytes32",
          "name": "role",
          "type": "bytes32"
        }
      ],
      "name": "getRoleAdmin",
      "outputs": [
        {
          "internalType": "bytes32",
          "name": "",
          "type": "bytes32"
        }
      ],
      "stateMutability": "view",
      "type": "function",
      "constant": true
    },
    {
      "inputs": [
        {
          "internalType": "bytes32",
          "name": "id",
          "type": "bytes32"
        }
      ],
      "name": "getTimestamp",
      "outputs": [
        {
          "internalType": "uint256",
          "name": "timestamp",
          "type": "uint256"
        }
      ],
      "stateMutability": "view",
      "type": "function",
      "constant": true
    },
    {
      "inputs": [
        {
          "internalType": "bytes32",
          "name": "role",
          "type": "bytes32"
        },
        {
          "internalType": "address",
          "name": "account",
          "type": "address"
        }
      ],
      "name": "grantRole",
      "outputs": [],
      "stateMutability": "nonpayable",
      "type": "function"
    },
    {
      "inputs": [
        {
          "internalType": "bytes32",
          "name": "role",
          "type": "bytes32"
        },
        {
          "internalType": "address",
          "name": "account",
          "type": "address"
        }
      ],
      "name": "hasRole",
      "outputs": [
        {
          "internalType": "bool",
          "name": "",
          "type": "bool"
        }
      ],
      "stateMutability": "view",
      "type": "function",
      "constant": true
    },
    {
      "inputs": [
        {
          "internalType": "address",
          "name": "target",
          "type": "address"
        },
        {
          "internalType": "uint256",
          "name": "value",
          "type": "uint256"
        },
        {
          "internalType": "bytes",
          "name": "data",
          "type": "bytes"
        },
        {
          "internalType": "bytes32",
          "name": "predecessor",
          "type": "bytes32"
        },
        {
          "internalType": "bytes32",
          "name": "salt",
          "type": "bytes32"
        }
      ],
      "name": "hashOperation",
      "outputs": [
        {
          "internalType": "bytes32",
          "name": "hash",
          "type": "bytes32"
        }
      ],
      "stateMutability": "pure",
      "type": "function",
      "constant": true
    },
    {
      "inputs": [
        {
          "internalType": "address[]",
          "name": "targets",
          "type": "address[]"
        },
        {
          "internalType": "uint256[]",
          "name": "values",
          "type": "uint256[]"
        },
        {
          "internalType": "bytes[]",
          "name": "payloads",
          "type": "bytes[]"
        },
        {
          "internalType": "bytes32",
          "name": "predecessor",
          "type": "bytes32"
        },
        {
          "internalType": "bytes32",
          "name": "salt",
          "type": "bytes32"
        }
      ],
      "name": "hashOperationBatch",
      "outputs": [
        {
          "internalType": "bytes32",
          "name": "hash",
          "type": "bytes32"
        }
      ],
      "stateMutability": "pure",
      "type": "function",
      "constant": true
    },
    {
      "inputs": [
        {
          "internalType": "bytes32",
          "name": "id",
          "type": "bytes32"
        }
      ],
      "name": "isOperation",
      "outputs": [
        {
          "internalType": "bool",
          "name": "registered",
          "type": "bool"
        }
      ],
      "stateMutability": "view",
      "type": "function",
      "constant": true
    },
    {
      "inputs": [
        {
          "internalType": "bytes32",
          "name": "id",
          "type": "bytes32"
        }
      ],
      "name": "isOperationDone",
      "outputs": [
        {
          "internalType": "bool",
          "name": "done",
          "type": "bool"
        }
      ],
      "stateMutability": "view",
      "type": "function",
      "constant": true
    },
    {
      "inputs": [
        {
          "internalType": "bytes32",
          "name": "id",
          "type": "bytes32"
        }
      ],
      "name": "isOperationPending",
      "outputs": [
        {
          "internalType": "bool",
          "name": "pending",
          "type": "bool"
        }
      ],
      "stateMutability": "view",
      "type": "function",
      "constant": true
    },
    {
      "inputs": [
        {
          "internalType": "bytes32",
          "name": "id",
          "type": "bytes32"
        }
      ],
      "name": "isOperationReady",
      "outputs": [
        {
          "internalType": "bool",
          "name": "ready",
          "type": "bool"
        }
      ],
      "stateMutability": "view",
      "type": "function",
      "constant": true
    },
    {
      "inputs": [
        {
          "internalType": "address",
          "name": "",
          "type": "address"
        },
        {
          "internalType": "address",
          "name": "",
          "type": "address"
        },
        {
          "internalType": "uint256[]",
          "name": "",
          "type": "uint256[]"
        },
        {
          "internalType": "uint256[]",
          "name": "",
          "type": "uint256[]"
        },
        {
          "internalType": "bytes",
          "name": "",
          "type": "bytes"
        }
      ],
      "name": "onERC1155BatchReceived",
      "outputs": [
        {
          "internalType": "bytes4",
          "name": "",
          "type": "bytes4"
        }
      ],
      "stateMutability": "nonpayable",
      "type": "function"
    },
    {
      "inputs": [
        {
          "internalType": "address",
          "name": "",
          "type": "address"
        },
        {
          "internalType": "address",
          "name": "",
          "type": "address"
        },
        {
          "internalType": "uint256",
          "name": "",
          "type": "uint256"
        },
        {
          "internalType": "uint256",
          "name": "",
          "type": "uint256"
        },
        {
          "internalType": "bytes",
          "name": "",
          "type": "bytes"
        }
      ],
      "name": "onERC1155Received",
      "outputs": [
        {
          "internalType": "bytes4",
          "name": "",
          "type": "bytes4"
        }
      ],
      "stateMutability": "nonpayable",
      "type": "function"
    },
    {
      "inputs": [
        {
          "internalType": "address",
          "name": "",
          "type": "address"
        },
        {
          "internalType": "address",
          "name": "",
          "type": "address"
        },
        {
          "internalType": "uint256",
          "name": "",
          "type": "uint256"
        },
        {
          "internalType": "bytes",
          "name": "",
          "type": "bytes"
        }
      ],
      "name": "onERC721Received",
      "outputs": [
        {
          "internalType": "bytes4",
          "name": "",
          "type": "bytes4"
        }
      ],
      "stateMutability": "nonpayable",
      "type": "function"
    },
    {
      "inputs": [
        {
          "internalType": "bytes32",
          "name": "role",
          "type": "bytes32"
        },
        {
          "internalType": "address",
          "name": "account",
          "type": "address"
        }
      ],
      "name": "renounceRole",
      "outputs": [],
      "stateMutability": "nonpayable",
      "type": "function"
    },
    {
      "inputs": [
        {
          "internalType": "bytes32",
          "name": "role",
          "type": "bytes32"
        },
        {
          "internalType": "address",
          "name": "account",
          "type": "address"
        }
      ],
      "name": "revokeRole",
      "outputs": [],
      "stateMutability": "nonpayable",
      "type": "function"
    },
    {
      "inputs": [
        {
          "internalType": "address",
          "name": "target",
          "type": "address"
        },
        {
          "internalType": "uint256",
          "name": "value",
          "type": "uint256"
        },
        {
          "internalType": "bytes",
          "name": "data",
          "type": "bytes"
        },
        {
          "internalType": "bytes32",
          "name": "predecessor",
          "type": "bytes32"
        },
        {
          "internalType": "bytes32",
          "name": "salt",
          "type": "bytes32"
        },
        {
          "internalType": "uint256",
          "name": "delay",
          "type": "uint256"
        }
      ],
      "name": "schedule",
      "outputs": [],
      "stateMutability": "nonpayable",
      "type": "function"
    },
    {
      "inputs": [
        {
          "internalType": "address[]",
          "name": "targets",
          "type": "address[]"
        },
        {
          "internalType": "uint256[]",
          "name": "values",
          "type": "uint256[]"
        },
        {
          "internalType": "bytes[]",
          "name": "payloads",
          "type": "bytes[]"
        },
        {
          "internalType": "bytes32",
          "name": "predecessor",
          "type": "bytes32"
        },
        {
          "internalType": "bytes32",
          "name": "salt",
          "type": "bytes32"
        },
        {
          "internalType": "uint256",
          "name": "delay",
          "type": "uint256"
        }
      ],
      "name": "scheduleBatch",
      "outputs": [],
      "stateMutability": "nonpayable",
      "type": "function"
    },
    {
      "inputs": [
        {
          "internalType": "bytes4",
          "name": "interfaceId",
          "type": "bytes4"
        }
      ],
      "name": "supportsInterface",
      "outputs": [
        {
          "internalType": "bool",
          "name": "",
          "type": "bool"
        }
      ],
      "stateMutability": "view",
      "type": "function",
      "constant": true
    },
    {
      "inputs": [
        {
          "internalType": "uint256",
          "name": "newDelay",
          "type": "uint256"
        }
      ],
      "name": "updateDelay",
      "outputs": [],
      "stateMutability": "nonpayable",
      "type": "function"
    },
    {
      "stateMutability": "payable",
      "type": "receive",
      "payable": true
    },
    {
      "inputs": [
        {
          "internalType": "contract IERC20",
          "name": "token",
          "type": "address"
        },
        {
          "internalType": "uint256",
          "name": "amount",
          "type": "uint256"
        }
      ],
      "name": "receiveAirdropTokens",
      "outputs": [],
      "stateMutability": "nonpayable",
      "type": "function"
    }
  ],
  "bytecode": "0x60806040523480156200001157600080fd5b50604051620024f3380380620024f3833981016040819052620000349162000410565b8383838362000053600080516020620024738339815191528062000235565b6200007d600080516020620024938339815191526000805160206200247383398151915262000235565b620000a7600080516020620024b38339815191526000805160206200247383398151915262000235565b620000d1600080516020620024d38339815191526000805160206200247383398151915262000235565b620000ec600080516020620024738339815191523062000280565b6001600160a01b03811615620001175762000117600080516020620024738339815191528262000280565b60005b83518110156200019d5762000161600080516020620024938339815191528583815181106200014d576200014d62000497565b60200260200101516200028060201b60201c565b6200018a600080516020620024d38339815191528583815181106200014d576200014d62000497565b6200019581620004ad565b90506200011a565b5060005b8251811015620001e757620001d4600080516020620024b38339815191528483815181106200014d576200014d62000497565b620001df81620004ad565b9050620001a1565b5060028490556040805160008152602081018690527f11c24f4ead16507c69ac467fbd5e4eed5fb5c699626d2cc6d66421df253886d5910160405180910390a15050505050505050620004d5565b600082815260208190526040808220600101805490849055905190918391839186917fbd79b86ffe0ab8e8776151514217cd7cacd52c909f66475c3af44e129f0b00ff9190a4505050565b6200028c828262000290565b5050565b6000828152602081815260408083206001600160a01b038516845290915290205460ff166200028c576000828152602081815260408083206001600160a01b03851684529091529020805460ff19166001179055620002ec3390565b6001600160a01b0316816001600160a01b0316837f2f8788117e7eff1d82e926ec794901d17c78024a50270940304540a733656f0d60405160405180910390a45050565b634e487b7160e01b600052604160045260246000fd5b80516001600160a01b03811681146200035e57600080fd5b919050565b600082601f8301126200037557600080fd5b815160206001600160401b038083111562000394576200039462000330565b8260051b604051601f19603f83011681018181108482111715620003bc57620003bc62000330565b604052938452858101830193838101925087851115620003db57600080fd5b83870191505b848210156200040557620003f58262000346565b83529183019190830190620003e1565b979650505050505050565b600080600080608085870312156200042757600080fd5b845160208601519094506001600160401b03808211156200044757600080fd5b620004558883890162000363565b945060408701519150808211156200046c57600080fd5b506200047b8782880162000363565b9250506200048c6060860162000346565b905092959194509250565b634e487b7160e01b600052603260045260246000fd5b600060018201620004ce57634e487b7160e01b600052601160045260246000fd5b5060010190565b611f8e80620004e56000396000f3fe6080604052600436106101c65760003560e01c806364d62353116100f7578063b1c5f42711610095578063d547741f11610064578063d547741f1461059b578063e38335e5146105bb578063f23a6e61146105ce578063f27a0c92146105fa57600080fd5b8063b1c5f42714610502578063bc197c8114610522578063c4d252f51461054e578063d45c44351461056e57600080fd5b80638f61f4f5116100d15780638f61f4f51461046557806391d1485414610499578063a217fddf146104b9578063b08e51c0146104ce57600080fd5b806364d62353146104055780638065657f146104255780638f2a0bb01461044557600080fd5b8063248a9ca31161016457806331d507501161013e57806331d507501461038557806336568abe146103a557806346705dde146103c5578063584b153e146103e557600080fd5b8063248a9ca3146103045780632ab0f529146103345780632f2ff15d1461036557600080fd5b80630d3cf6fc116101a05780630d3cf6fc14610259578063134008d31461028d57806313bc9f20146102a0578063150b7a02146102c057600080fd5b806301d5062a146101d257806301ffc9a7146101f457806307bd02651461022957600080fd5b366101cd57005b600080fd5b3480156101de57600080fd5b506101f26101ed36600461150c565b61060f565b005b34801561020057600080fd5b5061021461020f366004611582565b6106a4565b60405190151581526020015b60405180910390f35b34801561023557600080fd5b5061024b600080516020611f3983398151915281565b604051908152602001610220565b34801561026557600080fd5b5061024b7f5f58e3a2316349923ce3780f8d587db2d72378aed66a8261c916544fa6846ca581565b6101f261029b3660046115ac565b6106cf565b3480156102ac57600080fd5b506102146102bb366004611619565b610772565b3480156102cc57600080fd5b506102eb6102db3660046116e7565b630a85bd0160e11b949350505050565b6040516001600160e01b03199091168152602001610220565b34801561031057600080fd5b5061024b61031f366004611619565b60009081526020819052604090206001015490565b34801561034057600080fd5b5061021461034f366004611619565b6000908152600160208190526040909120541490565b34801561037157600080fd5b506101f2610380366004611752565b610798565b34801561039157600080fd5b506102146103a0366004611619565b6107c2565b3480156103b157600080fd5b506101f26103c0366004611752565b6107db565b3480156103d157600080fd5b506101f26103e0366004611782565b61085e565b3480156103f157600080fd5b50610214610400366004611619565b6109bc565b34801561041157600080fd5b506101f2610420366004611619565b6109d2565b34801561043157600080fd5b5061024b6104403660046115ac565b610a76565b34801561045157600080fd5b506101f26104603660046117f2565b610ab5565b34801561047157600080fd5b5061024b7fb09aa5aeb3702cfd50b6b62bc4532604938f21248a27a1d5ca736082b6819cc181565b3480156104a557600080fd5b506102146104b4366004611752565b610c07565b3480156104c557600080fd5b5061024b600081565b3480156104da57600080fd5b5061024b7ffd643c72710c63c0180259aba6b2d05451e3591a24e58b62239378085726f78381565b34801561050e57600080fd5b5061024b61051d3660046118a3565b610c30565b34801561052e57600080fd5b506102eb61053d3660046119ca565b63bc197c8160e01b95945050505050565b34801561055a57600080fd5b506101f2610569366004611619565b610c75565b34801561057a57600080fd5b5061024b610589366004611619565b60009081526001602052604090205490565b3480156105a757600080fd5b506101f26105b6366004611752565b610d4a565b6101f26105c93660046118a3565b610d6f565b3480156105da57600080fd5b506102eb6105e9366004611a77565b63f23a6e6160e01b95945050505050565b34801561060657600080fd5b5060025461024b565b7fb09aa5aeb3702cfd50b6b62bc4532604938f21248a27a1d5ca736082b6819cc161063981610ee7565b6000610649898989898989610a76565b90506106558184610ef4565b6000817f4cf4410cc57040e44862ef0f45f3dd5a5e02db8eb8add648d4b0e236f1d07dca8b8b8b8b8b8a60405161069196959493929190611b08565b60405180910390a3505050505050505050565b60006001600160e01b03198216630271189760e51b14806106c957506106c982610fe3565b92915050565b600080516020611f398339815191526106e9816000610c07565b6106f7576106f78133611018565b6000610707888888888888610a76565b90506107138185611071565b61071f8888888861110d565b6000817fc2617efa69bab66782fa219543714338489c4e9e178271560a91b82c3f612b588a8a8a8a6040516107579493929190611b45565b60405180910390a3610768816111e0565b5050505050505050565b6000818152600160205260408120546001811180156107915750428111155b9392505050565b6000828152602081905260409020600101546107b381610ee7565b6107bd8383611219565b505050565b60008181526001602052604081205481905b1192915050565b6001600160a01b03811633146108505760405162461bcd60e51b815260206004820152602f60248201527f416363657373436f6e74726f6c3a2063616e206f6e6c792072656e6f756e636560448201526e103937b632b9903337b91039b2b63360891b60648201526084015b60405180910390fd5b61085a828261129d565b5050565b600080516020611f3983398151915261087681610ee7565b6040516370a0823160e01b815230600482015282906001600160a01b038516906370a0823190602401602060405180830381865afa1580156108bc573d6000803e3d6000fd5b505050506040513d601f19601f820116820180604052508101906108e09190611b77565b10156109455760405162461bcd60e51b815260206004820152602e60248201527f50657065636861696e54696d656c6f636b3a204e6f7420656e6f75676820746f60448201526d6b656e7320617661696c61626c6560901b6064820152608401610847565b60405163a9059cbb60e01b8152336004820152602481018390526001600160a01b0384169063a9059cbb906044016020604051808303816000875af1158015610992573d6000803e3d6000fd5b505050506040513d601f19601f820116820180604052508101906109b69190611b90565b50505050565b60008181526001602081905260408220546107d4565b333014610a355760405162461bcd60e51b815260206004820152602b60248201527f54696d656c6f636b436f6e74726f6c6c65723a2063616c6c6572206d7573742060448201526a62652074696d656c6f636b60a81b6064820152608401610847565b60025460408051918252602082018390527f11c24f4ead16507c69ac467fbd5e4eed5fb5c699626d2cc6d66421df253886d5910160405180910390a1600255565b6000868686868686604051602001610a9396959493929190611b08565b6040516020818303038152906040528051906020012090509695505050505050565b7fb09aa5aeb3702cfd50b6b62bc4532604938f21248a27a1d5ca736082b6819cc1610adf81610ee7565b888714610afe5760405162461bcd60e51b815260040161084790611bb2565b888514610b1d5760405162461bcd60e51b815260040161084790611bb2565b6000610b2f8b8b8b8b8b8b8b8b610c30565b9050610b3b8184610ef4565b60005b8a811015610bf95780827f4cf4410cc57040e44862ef0f45f3dd5a5e02db8eb8add648d4b0e236f1d07dca8e8e85818110610b7b57610b7b611bf5565b9050602002016020810190610b909190611c0b565b8d8d86818110610ba257610ba2611bf5565b905060200201358c8c87818110610bbb57610bbb611bf5565b9050602002810190610bcd9190611c28565b8c8b604051610be196959493929190611b08565b60405180910390a3610bf281611c84565b9050610b3e565b505050505050505050505050565b6000918252602082815260408084206001600160a01b0393909316845291905290205460ff1690565b60008888888888888888604051602001610c51989796959493929190611d2e565b60405160208183030381529060405280519060200120905098975050505050505050565b7ffd643c72710c63c0180259aba6b2d05451e3591a24e58b62239378085726f783610c9f81610ee7565b610ca8826109bc565b610d0e5760405162461bcd60e51b815260206004820152603160248201527f54696d656c6f636b436f6e74726f6c6c65723a206f7065726174696f6e2063616044820152701b9b9bdd0818994818d85b98d95b1b1959607a1b6064820152608401610847565b6000828152600160205260408082208290555183917fbaa1eb22f2a492ba1a5fea61b8df4d27c6c8b5f3971e63bb58fa14ff72eedb7091a25050565b600082815260208190526040902060010154610d6581610ee7565b6107bd838361129d565b600080516020611f39833981519152610d89816000610c07565b610d9757610d978133611018565b878614610db65760405162461bcd60e51b815260040161084790611bb2565b878414610dd55760405162461bcd60e51b815260040161084790611bb2565b6000610de78a8a8a8a8a8a8a8a610c30565b9050610df38185611071565b60005b89811015610ed15760008b8b83818110610e1257610e12611bf5565b9050602002016020810190610e279190611c0b565b905060008a8a84818110610e3d57610e3d611bf5565b9050602002013590503660008a8a86818110610e5b57610e5b611bf5565b9050602002810190610e6d9190611c28565b91509150610e7d8484848461110d565b84867fc2617efa69bab66782fa219543714338489c4e9e178271560a91b82c3f612b5886868686604051610eb49493929190611b45565b60405180910390a35050505080610eca90611c84565b9050610df6565b50610edb816111e0565b50505050505050505050565b610ef18133611018565b50565b610efd826107c2565b15610f625760405162461bcd60e51b815260206004820152602f60248201527f54696d656c6f636b436f6e74726f6c6c65723a206f7065726174696f6e20616c60448201526e1c9958591e481cd8da19591d5b1959608a1b6064820152608401610847565b600254811015610fc35760405162461bcd60e51b815260206004820152602660248201527f54696d656c6f636b436f6e74726f6c6c65723a20696e73756666696369656e746044820152652064656c617960d01b6064820152608401610847565b610fcd8142611dd1565b6000928352600160205260409092209190915550565b60006001600160e01b03198216637965db0b60e01b14806106c957506301ffc9a760e01b6001600160e01b03198316146106c9565b6110228282610c07565b61085a5761102f81611302565b61103a836020611314565b60405160200161104b929190611e08565b60408051601f198184030181529082905262461bcd60e51b825261084791600401611e7d565b61107a82610772565b6110965760405162461bcd60e51b815260040161084790611eb0565b8015806110b25750600081815260016020819052604090912054145b61085a5760405162461bcd60e51b815260206004820152602660248201527f54696d656c6f636b436f6e74726f6c6c65723a206d697373696e6720646570656044820152656e64656e637960d01b6064820152608401610847565b6000846001600160a01b031684848460405161112a929190611efa565b60006040518083038185875af1925050503d8060008114611167576040519150601f19603f3d011682016040523d82523d6000602084013e61116c565b606091505b50509050806111d95760405162461bcd60e51b815260206004820152603360248201527f54696d656c6f636b436f6e74726f6c6c65723a20756e6465726c79696e6720746044820152721c985b9cd858dd1a5bdb881c995d995c9d1959606a1b6064820152608401610847565b5050505050565b6111e981610772565b6112055760405162461bcd60e51b815260040161084790611eb0565b600090815260016020819052604090912055565b6112238282610c07565b61085a576000828152602081815260408083206001600160a01b03851684529091529020805460ff191660011790556112593390565b6001600160a01b0316816001600160a01b0316837f2f8788117e7eff1d82e926ec794901d17c78024a50270940304540a733656f0d60405160405180910390a45050565b6112a78282610c07565b1561085a576000828152602081815260408083206001600160a01b0385168085529252808320805460ff1916905551339285917ff6391f5c32d9c69d2a47ea670b442974b53935d1edc7fd64eb21e047a839171b9190a45050565b60606106c96001600160a01b03831660145b60606000611323836002611f0a565b61132e906002611dd1565b6001600160401b0381111561134557611345611632565b6040519080825280601f01601f19166020018201604052801561136f576020820181803683370190505b509050600360fc1b8160008151811061138a5761138a611bf5565b60200101906001600160f81b031916908160001a905350600f60fb1b816001815181106113b9576113b9611bf5565b60200101906001600160f81b031916908160001a90535060006113dd846002611f0a565b6113e8906001611dd1565b90505b6001811115611460576f181899199a1a9b1b9c1cb0b131b232b360811b85600f166010811061141c5761141c611bf5565b1a60f81b82828151811061143257611432611bf5565b60200101906001600160f81b031916908160001a90535060049490941c9361145981611f21565b90506113eb565b5083156107915760405162461bcd60e51b815260206004820181905260248201527f537472696e67733a20686578206c656e67746820696e73756666696369656e746044820152606401610847565b6001600160a01b0381168114610ef157600080fd5b60008083601f8401126114d657600080fd5b5081356001600160401b038111156114ed57600080fd5b60208301915083602082850101111561150557600080fd5b9250929050565b600080600080600080600060c0888a03121561152757600080fd5b8735611532816114af565b96506020880135955060408801356001600160401b0381111561155457600080fd5b6115608a828b016114c4565b989b979a50986060810135976080820135975060a09091013595509350505050565b60006020828403121561159457600080fd5b81356001600160e01b03198116811461079157600080fd5b60008060008060008060a087890312156115c557600080fd5b86356115d0816114af565b95506020870135945060408701356001600160401b038111156115f257600080fd5b6115fe89828a016114c4565b979a9699509760608101359660809091013595509350505050565b60006020828403121561162b57600080fd5b5035919050565b634e487b7160e01b600052604160045260246000fd5b604051601f8201601f191681016001600160401b038111828210171561167057611670611632565b604052919050565b600082601f83011261168957600080fd5b81356001600160401b038111156116a2576116a2611632565b6116b5601f8201601f1916602001611648565b8181528460208386010111156116ca57600080fd5b816020850160208301376000918101602001919091529392505050565b600080600080608085870312156116fd57600080fd5b8435611708816114af565b93506020850135611718816114af565b92506040850135915060608501356001600160401b0381111561173a57600080fd5b61174687828801611678565b91505092959194509250565b6000806040838503121561176557600080fd5b823591506020830135611777816114af565b809150509250929050565b6000806040838503121561179557600080fd5b82356117a0816114af565b946020939093013593505050565b60008083601f8401126117c057600080fd5b5081356001600160401b038111156117d757600080fd5b6020830191508360208260051b850101111561150557600080fd5b600080600080600080600080600060c08a8c03121561181057600080fd5b89356001600160401b038082111561182757600080fd5b6118338d838e016117ae565b909b50995060208c013591508082111561184c57600080fd5b6118588d838e016117ae565b909950975060408c013591508082111561187157600080fd5b5061187e8c828d016117ae565b9a9d999c50979a969997986060880135976080810135975060a0013595509350505050565b60008060008060008060008060a0898b0312156118bf57600080fd5b88356001600160401b03808211156118d657600080fd5b6118e28c838d016117ae565b909a50985060208b01359150808211156118fb57600080fd5b6119078c838d016117ae565b909850965060408b013591508082111561192057600080fd5b5061192d8b828c016117ae565b999c989b509699959896976060870135966080013595509350505050565b600082601f83011261195c57600080fd5b813560206001600160401b0382111561197757611977611632565b8160051b611986828201611648565b92835284810182019282810190878511156119a057600080fd5b83870192505b848310156119bf578235825291830191908301906119a6565b979650505050505050565b600080600080600060a086880312156119e257600080fd5b85356119ed816114af565b945060208601356119fd816114af565b935060408601356001600160401b0380821115611a1957600080fd5b611a2589838a0161194b565b94506060880135915080821115611a3b57600080fd5b611a4789838a0161194b565b93506080880135915080821115611a5d57600080fd5b50611a6a88828901611678565b9150509295509295909350565b600080600080600060a08688031215611a8f57600080fd5b8535611a9a816114af565b94506020860135611aaa816114af565b9350604086013592506060860135915060808601356001600160401b03811115611ad357600080fd5b611a6a88828901611678565b81835281816020850137506000828201602090810191909152601f909101601f19169091010190565b60018060a01b038716815285602082015260a060408201526000611b3060a083018688611adf565b60608301949094525060800152949350505050565b60018060a01b0385168152836020820152606060408201526000611b6d606083018486611adf565b9695505050505050565b600060208284031215611b8957600080fd5b5051919050565b600060208284031215611ba257600080fd5b8151801515811461079157600080fd5b60208082526023908201527f54696d656c6f636b436f6e74726f6c6c65723a206c656e677468206d69736d616040820152620e8c6d60eb1b606082015260800190565b634e487b7160e01b600052603260045260246000fd5b600060208284031215611c1d57600080fd5b8135610791816114af565b6000808335601e19843603018112611c3f57600080fd5b8301803591506001600160401b03821115611c5957600080fd5b60200191503681900382131561150557600080fd5b634e487b7160e01b600052601160045260246000fd5b600060018201611c9657611c96611c6e565b5060010190565b81835260006020808501808196508560051b810191508460005b87811015611d215782840389528135601e19883603018112611cd857600080fd5b870185810190356001600160401b03811115611cf357600080fd5b803603821315611d0257600080fd5b611d0d868284611adf565b9a87019a9550505090840190600101611cb7565b5091979650505050505050565b60a0808252810188905260008960c08301825b8b811015611d71578235611d54816114af565b6001600160a01b0316825260209283019290910190600101611d41565b5083810360208501528881526001600160fb1b03891115611d9157600080fd5b8860051b9150818a60208301370182810360209081016040850152611db99082018789611c9d565b60608401959095525050608001529695505050505050565b808201808211156106c9576106c9611c6e565b60005b83811015611dff578181015183820152602001611de7565b50506000910152565b7f416363657373436f6e74726f6c3a206163636f756e7420000000000000000000815260008351611e40816017850160208801611de4565b7001034b99036b4b9b9b4b733903937b6329607d1b6017918401918201528351611e71816028840160208801611de4565b01602801949350505050565b6020815260008251806020840152611e9c816040850160208701611de4565b601f01601f19169190910160400192915050565b6020808252602a908201527f54696d656c6f636b436f6e74726f6c6c65723a206f7065726174696f6e206973604082015269206e6f7420726561647960b01b606082015260800190565b8183823760009101908152919050565b80820281158282048414176106c9576106c9611c6e565b600081611f3057611f30611c6e565b50600019019056fed8aa0f3194971a2a116679f7c2090f6939c8d4e01a2a8d7e41d55e5351469e63a2646970667358221220c7d731b69457520febad9dbccd8dd7d7be2a4c7b312440f216d283b45c26ec4864736f6c634300081100335f58e3a2316349923ce3780f8d587db2d72378aed66a8261c916544fa6846ca5b09aa5aeb3702cfd50b6b62bc4532604938f21248a27a1d5ca736082b6819cc1d8aa0f3194971a2a116679f7c2090f6939c8d4e01a2a8d7e41d55e5351469e63fd643c72710c63c0180259aba6b2d05451e3591a24e58b62239378085726f783",
  "immutableReferences": {},
  "source": "// SPDX-License-Identifier: MIT\npragma solidity ^0.8.0;\n\nimport \"@openzeppelin/contracts/governance/TimelockController.sol\";\nimport \"@openzeppelin/contracts/token/ERC20/IERC20.sol\";\n\ncontract PepechainTimelock is TimelockController {\n    constructor(uint256 minDelay, address[] memory proposers, address[] memory executors, address admin)\n        TimelockController(minDelay, proposers, executors, admin)\n    {}\n    \n    function receiveAirdropTokens(IERC20 token, uint256 amount) external onlyRole(EXECUTOR_ROLE) {\n        require(token.balanceOf(address(this)) >= amount, \"PepechainTimelock: Not enough tokens available\");\n        token.transfer(msg.sender, amount);\n    }\n}\n",
  "sourcePath": "/Applications/projects/pepechain-smart-contracts/contracts/PepechainTimelock.sol",
  "compiler": {
    "name": "solc",
    "version": "0.8.17+commit.8df45f5f.Emscripten.clang"
  },
  "schemaVersion": "3.4.13",
  "updatedAt": "2023-05-07T04:22:18.119Z",
  "networkType": "ethereum",
  "devdoc": {
    "kind": "dev",
    "methods": {
      "cancel(bytes32)": {
        "details": "Cancel an operation. Requirements: - the caller must have the 'canceller' role."
      },
      "execute(address,uint256,bytes,bytes32,bytes32)": {
        "details": "Execute an (ready) operation containing a single transaction. Emits a {CallExecuted} event. Requirements: - the caller must have the 'executor' role."
      },
      "executeBatch(address[],uint256[],bytes[],bytes32,bytes32)": {
        "details": "Execute an (ready) operation containing a batch of transactions. Emits one {CallExecuted} event per transaction in the batch. Requirements: - the caller must have the 'executor' role."
      },
      "getMinDelay()": {
        "details": "Returns the minimum delay for an operation to become valid. This value can be changed by executing an operation that calls `updateDelay`."
      },
      "getRoleAdmin(bytes32)": {
        "details": "Returns the admin role that controls `role`. See {grantRole} and {revokeRole}. To change a role's admin, use {_setRoleAdmin}."
      },
      "getTimestamp(bytes32)": {
        "details": "Returns the timestamp at with an operation becomes ready (0 for unset operations, 1 for done operations)."
      },
      "grantRole(bytes32,address)": {
        "details": "Grants `role` to `account`. If `account` had not been already granted `role`, emits a {RoleGranted} event. Requirements: - the caller must have ``role``'s admin role. May emit a {RoleGranted} event."
      },
      "hasRole(bytes32,address)": {
        "details": "Returns `true` if `account` has been granted `role`."
      },
      "hashOperation(address,uint256,bytes,bytes32,bytes32)": {
        "details": "Returns the identifier of an operation containing a single transaction."
      },
      "hashOperationBatch(address[],uint256[],bytes[],bytes32,bytes32)": {
        "details": "Returns the identifier of an operation containing a batch of transactions."
      },
      "isOperation(bytes32)": {
        "details": "Returns whether an id correspond to a registered operation. This includes both Pending, Ready and Done operations."
      },
      "isOperationDone(bytes32)": {
        "details": "Returns whether an operation is done or not."
      },
      "isOperationPending(bytes32)": {
        "details": "Returns whether an operation is pending or not."
      },
      "isOperationReady(bytes32)": {
        "details": "Returns whether an operation is ready or not."
      },
      "onERC1155BatchReceived(address,address,uint256[],uint256[],bytes)": {
        "details": "See {IERC1155Receiver-onERC1155BatchReceived}."
      },
      "onERC1155Received(address,address,uint256,uint256,bytes)": {
        "details": "See {IERC1155Receiver-onERC1155Received}."
      },
      "onERC721Received(address,address,uint256,bytes)": {
        "details": "See {IERC721Receiver-onERC721Received}."
      },
      "renounceRole(bytes32,address)": {
        "details": "Revokes `role` from the calling account. Roles are often managed via {grantRole} and {revokeRole}: this function's purpose is to provide a mechanism for accounts to lose their privileges if they are compromised (such as when a trusted device is misplaced). If the calling account had been revoked `role`, emits a {RoleRevoked} event. Requirements: - the caller must be `account`. May emit a {RoleRevoked} event."
      },
      "revokeRole(bytes32,address)": {
        "details": "Revokes `role` from `account`. If `account` had been granted `role`, emits a {RoleRevoked} event. Requirements: - the caller must have ``role``'s admin role. May emit a {RoleRevoked} event."
      },
      "schedule(address,uint256,bytes,bytes32,bytes32,uint256)": {
        "details": "Schedule an operation containing a single transaction. Emits a {CallScheduled} event. Requirements: - the caller must have the 'proposer' role."
      },
      "scheduleBatch(address[],uint256[],bytes[],bytes32,bytes32,uint256)": {
        "details": "Schedule an operation containing a batch of transactions. Emits one {CallScheduled} event per transaction in the batch. Requirements: - the caller must have the 'proposer' role."
      },
      "supportsInterface(bytes4)": {
        "details": "See {IERC165-supportsInterface}."
      },
      "updateDelay(uint256)": {
        "details": "Changes the minimum timelock duration for future operations. Emits a {MinDelayChange} event. Requirements: - the caller must be the timelock itself. This can only be achieved by scheduling and later executing an operation where the timelock is the target and the data is the ABI-encoded call to this function."
      }
    },
    "version": 1
  },
  "userdoc": {
    "kind": "user",
    "methods": {},
    "version": 1
  }
}